{
  "contractName": "Moloch",
  "abi": [
    {
      "constant": true,
      "inputs": [
        {
          "name": "",
          "type": "uint256"
        }
      ],
      "name": "proposals",
      "outputs": [
        {
          "name": "applicant",
          "type": "address"
        },
        {
          "name": "proposer",
          "type": "address"
        },
        {
          "name": "sponsor",
          "type": "address"
        },
        {
          "name": "sharesRequested",
          "type": "uint256"
        },
        {
          "name": "tributeOffered",
          "type": "uint256"
        },
        {
          "name": "tributeToken",
          "type": "address"
        },
        {
          "name": "paymentRequested",
          "type": "uint256"
        },
        {
          "name": "paymentToken",
          "type": "address"
        },
        {
          "name": "startingPeriod",
          "type": "uint256"
        },
        {
          "name": "yesVotes",
          "type": "uint256"
        },
        {
          "name": "noVotes",
          "type": "uint256"
        },
        {
          "name": "details",
          "type": "string"
        },
        {
          "name": "maxTotalSharesAtYesVote",
          "type": "uint256"
        }
      ],
      "payable": false,
      "stateMutability": "view",
      "type": "function"
    },
    {
      "constant": true,
      "inputs": [],
      "name": "processingReward",
      "outputs": [
        {
          "name": "",
          "type": "uint256"
        }
      ],
      "payable": false,
      "stateMutability": "view",
      "type": "function"
    },
    {
      "constant": true,
      "inputs": [
        {
          "name": "",
          "type": "address"
        }
      ],
      "name": "members",
      "outputs": [
        {
          "name": "delegateKey",
          "type": "address"
        },
        {
          "name": "shares",
          "type": "uint256"
        },
        {
          "name": "exists",
          "type": "bool"
        },
        {
          "name": "highestIndexYesVote",
          "type": "uint256"
        }
      ],
      "payable": false,
      "stateMutability": "view",
      "type": "function"
    },
    {
      "constant": true,
      "inputs": [],
      "name": "totalSharesRequested",
      "outputs": [
        {
          "name": "",
          "type": "uint256"
        }
      ],
      "payable": false,
      "stateMutability": "view",
      "type": "function"
    },
    {
      "constant": true,
      "inputs": [
        {
          "name": "",
          "type": "uint256"
        }
      ],
      "name": "approvedTokens",
      "outputs": [
        {
          "name": "",
          "type": "address"
        }
      ],
      "payable": false,
      "stateMutability": "view",
      "type": "function"
    },
    {
      "constant": true,
      "inputs": [],
      "name": "totalShares",
      "outputs": [
        {
          "name": "",
          "type": "uint256"
        }
      ],
      "payable": false,
      "stateMutability": "view",
      "type": "function"
    },
    {
      "constant": true,
      "inputs": [
        {
          "name": "",
          "type": "uint256"
        }
      ],
      "name": "proposalQueue",
      "outputs": [
        {
          "name": "",
          "type": "uint256"
        }
      ],
      "payable": false,
      "stateMutability": "view",
      "type": "function"
    },
    {
      "constant": true,
      "inputs": [
        {
          "name": "",
          "type": "address"
        }
      ],
      "name": "proposedToKick",
      "outputs": [
        {
          "name": "",
          "type": "bool"
        }
      ],
      "payable": false,
      "stateMutability": "view",
      "type": "function"
    },
    {
      "constant": true,
      "inputs": [
        {
          "name": "",
          "type": "address"
        }
      ],
      "name": "memberAddressByDelegateKey",
      "outputs": [
        {
          "name": "",
          "type": "address"
        }
      ],
      "payable": false,
      "stateMutability": "view",
      "type": "function"
    },
    {
      "constant": true,
      "inputs": [],
      "name": "gracePeriodLength",
      "outputs": [
        {
          "name": "",
          "type": "uint256"
        }
      ],
      "payable": false,
      "stateMutability": "view",
      "type": "function"
    },
    {
      "constant": true,
      "inputs": [
        {
          "name": "",
          "type": "address"
        }
      ],
      "name": "tokenWhitelist",
      "outputs": [
        {
          "name": "",
          "type": "bool"
        }
      ],
      "payable": false,
      "stateMutability": "view",
      "type": "function"
    },
    {
      "constant": true,
      "inputs": [],
      "name": "summoningTime",
      "outputs": [
        {
          "name": "",
          "type": "uint256"
        }
      ],
      "payable": false,
      "stateMutability": "view",
      "type": "function"
    },
    {
      "constant": true,
      "inputs": [],
      "name": "votingPeriodLength",
      "outputs": [
        {
          "name": "",
          "type": "uint256"
        }
      ],
      "payable": false,
      "stateMutability": "view",
      "type": "function"
    },
    {
      "constant": true,
      "inputs": [],
      "name": "proposalDeposit",
      "outputs": [
        {
          "name": "",
          "type": "uint256"
        }
      ],
      "payable": false,
      "stateMutability": "view",
      "type": "function"
    },
    {
      "constant": true,
      "inputs": [],
      "name": "guildBank",
      "outputs": [
        {
          "name": "",
          "type": "address"
        }
      ],
      "payable": false,
      "stateMutability": "view",
      "type": "function"
    },
    {
      "constant": true,
      "inputs": [],
      "name": "dilutionBound",
      "outputs": [
        {
          "name": "",
          "type": "uint256"
        }
      ],
      "payable": false,
      "stateMutability": "view",
      "type": "function"
    },
    {
      "constant": true,
      "inputs": [],
      "name": "periodDuration",
      "outputs": [
        {
          "name": "",
          "type": "uint256"
        }
      ],
      "payable": false,
      "stateMutability": "view",
      "type": "function"
    },
    {
      "constant": true,
      "inputs": [],
      "name": "depositToken",
      "outputs": [
        {
          "name": "",
          "type": "address"
        }
      ],
      "payable": false,
      "stateMutability": "view",
      "type": "function"
    },
    {
      "constant": true,
      "inputs": [],
      "name": "emergencyExitWait",
      "outputs": [
        {
          "name": "",
          "type": "uint256"
        }
      ],
      "payable": false,
      "stateMutability": "view",
      "type": "function"
    },
    {
      "constant": true,
      "inputs": [],
      "name": "proposalCount",
      "outputs": [
        {
          "name": "",
          "type": "uint256"
        }
      ],
      "payable": false,
      "stateMutability": "view",
      "type": "function"
    },
    {
      "constant": true,
      "inputs": [
        {
          "name": "",
          "type": "address"
        }
      ],
      "name": "proposedToWhitelist",
      "outputs": [
        {
          "name": "",
          "type": "bool"
        }
      ],
      "payable": false,
      "stateMutability": "view",
      "type": "function"
    },
    {
      "inputs": [
        {
          "name": "summoner",
          "type": "address"
        },
        {
          "name": "_approvedTokens",
          "type": "address[]"
        },
        {
          "name": "_periodDuration",
          "type": "uint256"
        },
        {
          "name": "_votingPeriodLength",
          "type": "uint256"
        },
        {
          "name": "_gracePeriodLength",
          "type": "uint256"
        },
        {
          "name": "_emergencyExitWait",
          "type": "uint256"
        },
        {
          "name": "_proposalDeposit",
          "type": "uint256"
        },
        {
          "name": "_dilutionBound",
          "type": "uint256"
        },
        {
          "name": "_processingReward",
          "type": "uint256"
        }
      ],
      "payable": false,
      "stateMutability": "nonpayable",
      "type": "constructor"
    },
    {
      "anonymous": false,
      "inputs": [
        {
          "indexed": false,
          "name": "proposalIndex",
          "type": "uint256"
        },
        {
          "indexed": true,
          "name": "delegateKey",
          "type": "address"
        },
        {
          "indexed": true,
          "name": "memberAddress",
          "type": "address"
        },
        {
          "indexed": true,
          "name": "applicant",
          "type": "address"
        },
        {
          "indexed": false,
          "name": "tributeOffered",
          "type": "uint256"
        },
        {
          "indexed": false,
          "name": "tributeToken",
          "type": "address"
        },
        {
          "indexed": false,
          "name": "sharesRequested",
          "type": "uint256"
        },
        {
          "indexed": false,
          "name": "paymentRequested",
          "type": "uint256"
        },
        {
          "indexed": false,
          "name": "paymentToken",
          "type": "address"
        }
      ],
      "name": "SubmitProposal",
      "type": "event"
    },
    {
      "anonymous": false,
      "inputs": [
        {
          "indexed": true,
          "name": "delegateKey",
          "type": "address"
        },
        {
          "indexed": true,
          "name": "memberAddress",
          "type": "address"
        },
        {
          "indexed": false,
          "name": "proposalIndex",
          "type": "uint256"
        },
        {
          "indexed": false,
          "name": "proposalQueueIndex",
          "type": "uint256"
        },
        {
          "indexed": false,
          "name": "startingPeriod",
          "type": "uint256"
        }
      ],
      "name": "SponsorProposal",
      "type": "event"
    },
    {
      "anonymous": false,
      "inputs": [
        {
          "indexed": true,
          "name": "proposalQueueIndex",
          "type": "uint256"
        },
        {
          "indexed": true,
          "name": "delegateKey",
          "type": "address"
        },
        {
          "indexed": true,
          "name": "memberAddress",
          "type": "address"
        },
        {
          "indexed": false,
          "name": "uintVote",
          "type": "uint8"
        }
      ],
      "name": "SubmitVote",
      "type": "event"
    },
    {
      "anonymous": false,
      "inputs": [
        {
          "indexed": true,
          "name": "proposalQueueIndex",
          "type": "uint256"
        },
        {
          "indexed": true,
          "name": "proposalId",
          "type": "uint256"
        },
        {
          "indexed": false,
          "name": "didPass",
          "type": "bool"
        }
      ],
      "name": "ProcessProposal",
      "type": "event"
    },
    {
      "anonymous": false,
      "inputs": [
        {
          "indexed": true,
          "name": "memberAddress",
          "type": "address"
        },
        {
          "indexed": false,
          "name": "sharesToBurn",
          "type": "uint256"
        },
        {
          "indexed": false,
          "name": "tokenList",
          "type": "address[]"
        }
      ],
      "name": "Ragequit",
      "type": "event"
    },
    {
      "anonymous": false,
      "inputs": [
        {
          "indexed": true,
          "name": "proposalIndex",
          "type": "uint256"
        },
        {
          "indexed": false,
          "name": "applicantAddress",
          "type": "address"
        }
      ],
      "name": "CancelProposal",
      "type": "event"
    },
    {
      "anonymous": false,
      "inputs": [
        {
          "indexed": true,
          "name": "memberAddress",
          "type": "address"
        },
        {
          "indexed": false,
          "name": "newDelegateKey",
          "type": "address"
        }
      ],
      "name": "UpdateDelegateKey",
      "type": "event"
    },
    {
      "anonymous": false,
      "inputs": [
        {
          "indexed": true,
          "name": "summoner",
          "type": "address"
        },
        {
          "indexed": false,
          "name": "shares",
          "type": "uint256"
        }
      ],
      "name": "SummonComplete",
      "type": "event"
    },
    {
      "constant": false,
      "inputs": [
        {
          "name": "applicant",
          "type": "address"
        },
        {
          "name": "sharesRequested",
          "type": "uint256"
        },
        {
          "name": "tributeOffered",
          "type": "uint256"
        },
        {
          "name": "tributeToken",
          "type": "address"
        },
        {
          "name": "paymentRequested",
          "type": "uint256"
        },
        {
          "name": "paymentToken",
          "type": "address"
        },
        {
          "name": "details",
          "type": "string"
        }
      ],
      "name": "submitProposal",
      "outputs": [],
      "payable": false,
      "stateMutability": "nonpayable",
      "type": "function"
    },
    {
      "constant": false,
      "inputs": [
        {
          "name": "tokenToWhitelist",
          "type": "address"
        },
        {
          "name": "details",
          "type": "string"
        }
      ],
      "name": "submitWhitelistProposal",
      "outputs": [],
      "payable": false,
      "stateMutability": "nonpayable",
      "type": "function"
    },
    {
      "constant": false,
      "inputs": [
        {
          "name": "memberToKick",
          "type": "address"
        },
        {
          "name": "details",
          "type": "string"
        }
      ],
      "name": "submitGuildKickProposal",
      "outputs": [],
      "payable": false,
      "stateMutability": "nonpayable",
      "type": "function"
    },
    {
      "constant": false,
      "inputs": [
        {
          "name": "proposalId",
          "type": "uint256"
        }
      ],
      "name": "sponsorProposal",
      "outputs": [],
      "payable": false,
      "stateMutability": "nonpayable",
      "type": "function"
    },
    {
      "constant": false,
      "inputs": [
        {
          "name": "proposalIndex",
          "type": "uint256"
        },
        {
          "name": "uintVote",
          "type": "uint8"
        }
      ],
      "name": "submitVote",
      "outputs": [],
      "payable": false,
      "stateMutability": "nonpayable",
      "type": "function"
    },
    {
      "constant": false,
      "inputs": [
        {
          "name": "proposalIndex",
          "type": "uint256"
        }
      ],
      "name": "processProposal",
      "outputs": [],
      "payable": false,
      "stateMutability": "nonpayable",
      "type": "function"
    },
    {
      "constant": false,
      "inputs": [
        {
          "name": "proposalIndex",
          "type": "uint256"
        }
      ],
      "name": "processWhitelistProposal",
      "outputs": [],
      "payable": false,
      "stateMutability": "nonpayable",
      "type": "function"
    },
    {
      "constant": false,
      "inputs": [
        {
          "name": "proposalIndex",
          "type": "uint256"
        }
      ],
      "name": "processGuildKickProposal",
      "outputs": [],
      "payable": false,
      "stateMutability": "nonpayable",
      "type": "function"
    },
    {
      "constant": false,
      "inputs": [
        {
          "name": "sharesToBurn",
          "type": "uint256"
        }
      ],
      "name": "ragequit",
      "outputs": [],
      "payable": false,
      "stateMutability": "nonpayable",
      "type": "function"
    },
    {
      "constant": false,
      "inputs": [
        {
          "name": "sharesToBurn",
          "type": "uint256"
        },
        {
          "name": "tokenList",
          "type": "address[]"
        }
      ],
      "name": "safeRagequit",
      "outputs": [],
      "payable": false,
      "stateMutability": "nonpayable",
      "type": "function"
    },
    {
      "constant": false,
      "inputs": [
        {
          "name": "proposalId",
          "type": "uint256"
        }
      ],
      "name": "cancelProposal",
      "outputs": [],
      "payable": false,
      "stateMutability": "nonpayable",
      "type": "function"
    },
    {
      "constant": false,
      "inputs": [
        {
          "name": "newDelegateKey",
          "type": "address"
        }
      ],
      "name": "updateDelegateKey",
      "outputs": [],
      "payable": false,
      "stateMutability": "nonpayable",
      "type": "function"
    },
    {
      "constant": true,
      "inputs": [],
      "name": "getCurrentPeriod",
      "outputs": [
        {
          "name": "",
          "type": "uint256"
        }
      ],
      "payable": false,
      "stateMutability": "view",
      "type": "function"
    },
    {
      "constant": true,
      "inputs": [],
      "name": "getProposalQueueLength",
      "outputs": [
        {
          "name": "",
          "type": "uint256"
        }
      ],
      "payable": false,
      "stateMutability": "view",
      "type": "function"
    },
    {
      "constant": true,
      "inputs": [
        {
          "name": "proposalIndex",
          "type": "uint256"
        }
      ],
      "name": "getProposalFlags",
      "outputs": [
        {
          "name": "",
          "type": "bool[6]"
        }
      ],
      "payable": false,
      "stateMutability": "view",
      "type": "function"
    },
    {
      "constant": true,
      "inputs": [
        {
          "name": "highestIndexYesVote",
          "type": "uint256"
        }
      ],
      "name": "canRagequit",
      "outputs": [
        {
          "name": "",
          "type": "bool"
        }
      ],
      "payable": false,
      "stateMutability": "view",
      "type": "function"
    },
    {
      "constant": true,
      "inputs": [
        {
          "name": "startingPeriod",
          "type": "uint256"
        }
      ],
      "name": "hasVotingPeriodExpired",
      "outputs": [
        {
          "name": "",
          "type": "bool"
        }
      ],
      "payable": false,
      "stateMutability": "view",
      "type": "function"
    },
    {
      "constant": true,
      "inputs": [
        {
          "name": "memberAddress",
          "type": "address"
        },
        {
          "name": "proposalIndex",
          "type": "uint256"
        }
      ],
      "name": "getMemberProposalVote",
      "outputs": [
        {
          "name": "",
          "type": "uint8"
        }
      ],
      "payable": false,
      "stateMutability": "view",
      "type": "function"
    }
  ],
  "bytecode": "0x60806040526000600a556000600b556000600c553480156200002057600080fd5b506040516200520c3803806200520c83398101806040526101208110156200004757600080fd5b8151602083018051919392830192916401000000008111156200006957600080fd5b820160208101848111156200007d57600080fd5b81518560208202830111640100000000821117156200009b57600080fd5b5050602082015160408301516060840151608085015160a086015160c087015160e09097015195985093965091949093919291600160a060020a03891615156200014657604080517f08c379a000000000000000000000000000000000000000000000000000000000815260206004820152601460248201527f73756d6d6f6e65722063616e6e6f742062652030000000000000000000000000604482015290519081900360640190fd5b60008711620001b657604080517f08c379a000000000000000000000000000000000000000000000000000000000815260206004820152601b60248201527f5f706572696f644475726174696f6e2063616e6e6f7420626520300000000000604482015290519081900360640190fd5b600086116200022657604080517f08c379a000000000000000000000000000000000000000000000000000000000815260206004820152601f60248201527f5f766f74696e67506572696f644c656e6774682063616e6e6f74206265203000604482015290519081900360640190fd5b670de0b6b3a764000086111562000289576040517f08c379a0000000000000000000000000000000000000000000000000000000008152600401808060200182810382526021815260200180620051b26021913960400191505060405180910390fd5b670de0b6b3a76400008511156200030157604080517f08c379a000000000000000000000000000000000000000000000000000000000815260206004820181905260248201527f5f6772616365506572696f644c656e6774682065786365656473206c696d6974604482015290519081900360640190fd5b600084116200037157604080517f08c379a000000000000000000000000000000000000000000000000000000000815260206004820152601e60248201527f5f656d657267656e637945786974576169742063616e6e6f7420626520300000604482015290519081900360640190fd5b60008211620003e157604080517f08c379a000000000000000000000000000000000000000000000000000000000815260206004820152601a60248201527f5f64696c7574696f6e426f756e642063616e6e6f742062652030000000000000604482015290519081900360640190fd5b670de0b6b3a76400008211156200045957604080517f08c379a000000000000000000000000000000000000000000000000000000000815260206004820152601c60248201527f5f64696c7574696f6e426f756e642065786365656473206c696d697400000000604482015290519081900360640190fd5b8751600010620004ca57604080517f08c379a000000000000000000000000000000000000000000000000000000000815260206004820181905260248201527f6e656564206174206c65617374206f6e6520617070726f76656420746f6b656e604482015290519081900360640190fd5b8083101562000525576040517f08c379a0000000000000000000000000000000000000000000000000000000008152600401808060200182810382526039815260200180620051d36039913960400191505060405180910390fd5b8760008151811015156200053557fe5b602090810291909101015160088054600160a060020a031916600160a060020a0390921691909117905560005b8851811015620007445788516000908a90839081106200057e57fe5b60209081029091010151600160a060020a03161415620005ff57604080517f08c379a000000000000000000000000000000000000000000000000000000000815260206004820152601a60248201527f5f617070726f766564546f6b656e2063616e6e6f742062652030000000000000604482015290519081900360640190fd5b600d60008a838151811015156200061257fe5b6020908102909101810151600160a060020a031682528101919091526040016000205460ff1615620006a557604080517f08c379a000000000000000000000000000000000000000000000000000000000815260206004820152601860248201527f6475706c696361746520617070726f76656420746f6b656e0000000000000000604482015290519081900360640190fd5b6001600d60008b84815181101515620006ba57fe5b602090810291909101810151600160a060020a03168252810191909152604001600020805460ff19169115159190911790558851600e908a9083908110620006fe57fe5b6020908102919091018101518254600180820185556000948552929093209092018054600160a060020a031916600160a060020a03909316929092179091550162000562565b5060405162000753906200092b565b604051809103906000f08015801562000770573d6000803e3d6000fd5b50600960006101000a815481600160a060020a030219169083600160a060020a0316021790555086600081905550856001819055508460028190555083600381905550826004819055508160058190555080600681905550426007819055506080604051908101604052808a600160a060020a03168152602001600181526020016001151581526020016000815250601160008b600160a060020a0316600160a060020a0316815260200190815260200160002060008201518160000160006101000a815481600160a060020a030219169083600160a060020a031602179055506020820151816001015560408201518160020160006101000a81548160ff0219169083151502179055506060820151816003015590505088601260008b600160a060020a0316600160a060020a0316815260200190815260200160002060006101000a815481600160a060020a030219169083600160a060020a031602179055506001600b8190555088600160a060020a03167f03995a801b13c36325306deef859ef977ce61c6e15a794281bf969d20482522760016040518082815260200191505060405180910390a250505050505050505062000939565b61066d8062004b4583390190565b6141fc80620009496000396000f3fe608060405234801561001057600080fd5b50600436106102ca576000357c0100000000000000000000000000000000000000000000000000000000900480638340bbce11610198578063b470aade116100f5578063e0a8f6f5116100a9578063e1a0e3fa1161008e578063e1a0e3fa146109ce578063e63bc62d146109eb578063feb7ea1d14610a08576102ca565b8063e0a8f6f51461098b578063e1780345146109a8576102ca565b8063da298998116100da578063da298998146108d1578063da35c664146108d9578063de9ee202146108e1576102ca565b8063b470aade146108c1578063c89039c5146108c9576102ca565b806399653fbe1161014c578063a42afd2911610131578063a42afd291461085c578063afe5475f14610864578063b2643aab1461086c576102ca565b806399653fbe14610819578063a3dc38001461083f576102ca565b80638b15a6051161017d5780638b15a605146107d75780639425a476146107df5780639746d940146107fc576102ca565b80638340bbce146107b25780638436593f146107ba576102ca565b80633793ab3c1161024657806357064c58116101fa578063753d7563116101df578063753d75631461077c578063797daf70146107a25780637d5b6c72146107aa576102ca565b806357064c581461069b57806363858f2d14610774576102ca565b80633b214a741161022b5780633b214a741461061e5780633fc24bba1461063b578063402c179414610675576102ca565b80633793ab3c146105f95780633a98ef3914610616576102ca565b806308ae4b0c1161029d5780631a396a4a116102825780631a396a4a146105925780631dafede01461059a5780632582bf2a146105d3576102ca565b806308ae4b0c14610484578063115b2d18146104da576102ca565b8063013cf08b146102cf57806303e32fa114610412578063044a0ca81461042c578063086146d21461047c575b600080fd5b6102ec600480360360208110156102e557600080fd5b5035610abe565b604051808e600160a060020a0316600160a060020a031681526020018d600160a060020a0316600160a060020a031681526020018c600160a060020a0316600160a060020a031681526020018b81526020018a815260200189600160a060020a0316600160a060020a0316815260200188815260200187600160a060020a0316600160a060020a0316815260200186815260200185815260200184815260200180602001838152602001828103825284818151815260200191508051906020019080838360005b838110156103cb5781810151838201526020016103b3565b50505050905090810190601f1680156103f85780820380516001836020036101000a031916815260200191505b509e50505050505050505050505050505060405180910390f35b61041a610c1b565b60408051918252519081900360200190f35b6104586004803603604081101561044257600080fd5b50600160a060020a038135169060200135610c21565b6040518082600281111561046857fe5b60ff16815260200191505060405180910390f35b61041a610d41565b6104aa6004803603602081101561049a57600080fd5b5035600160a060020a0316610d70565b60408051600160a060020a0390951685526020850193909352901515838301526060830152519081900360800190f35b610590600480360360408110156104f057600080fd5b600160a060020a03823516919081019060408101602082013564010000000081111561051b57600080fd5b82018360208201111561052d57600080fd5b8035906020019184600183028401116401000000008311171561054f57600080fd5b91908080601f016020809104026020016040519081016040528093929190818152602001838380828437600092019190915250929550610da7945050505050565b005b61041a610e27565b6105b7600480360360208110156105b057600080fd5b5035610e2d565b60408051600160a060020a039092168252519081900360200190f35b610590600480360360208110156105e957600080fd5b5035600160a060020a0316610e55565b6105906004803603602081101561060f57600080fd5b503561108e565b61041a611279565b61041a6004803603602081101561063457600080fd5b503561127f565b6106616004803603602081101561065157600080fd5b5035600160a060020a031661129e565b604080519115158252519081900360200190f35b6105b76004803603602081101561068b57600080fd5b5035600160a060020a03166112b3565b610590600480360360e08110156106b157600080fd5b600160a060020a038235811692602081013592604082013592606083013581169260808101359260a08201359092169181019060e0810160c08201356401000000008111156106ff57600080fd5b82018360208201111561071157600080fd5b8035906020019184600183028401116401000000008311171561073357600080fd5b91908080601f0160208091040260200160405190810160405280939291908181526020018383808284376000920191909152509295506112ce945050505050565b61041a611524565b6106616004803603602081101561079257600080fd5b5035600160a060020a031661152a565b61041a61153f565b61041a611545565b61041a61154b565b610590600480360360208110156107d057600080fd5b5035611551565b61041a611621565b610661600480360360208110156107f557600080fd5b5035611627565b6105906004803603602081101561081257600080fd5b503561164e565b6105906004803603604081101561082f57600080fd5b508035906020013560ff16611c29565b6106616004803603602081101561085557600080fd5b5035612088565b6105b761213e565b61041a61214d565b6108896004803603602081101561088257600080fd5b5035612153565b604051808260c080838360005b838110156108ae578181015183820152602001610896565b5050505090500191505060405180910390f35b61041a6121bd565b6105b76121c3565b61041a6121d2565b61041a6121d8565b610590600480360360408110156108f757600080fd5b8135919081019060408101602082013564010000000081111561091957600080fd5b82018360208201111561092b57600080fd5b8035906020019184602083028401116401000000008311171561094d57600080fd5b9190808060200260200160405190810160405280939291908181526020018383602002808284376000920191909152509295506121de945050505050565b610590600480360360208110156109a157600080fd5b5035612385565b610661600480360360208110156109be57600080fd5b5035600160a060020a0316612577565b610590600480360360208110156109e457600080fd5b503561258c565b61059060048036036020811015610a0157600080fd5b503561272d565b61059060048036036040811015610a1e57600080fd5b600160a060020a038235169190810190604081016020820135640100000000811115610a4957600080fd5b820183602082011115610a5b57600080fd5b80359060200191846001830284011164010000000083111715610a7d57600080fd5b91908080601f016020809104026020016040519081016040528093929190818152602001838380828437600092019190915250929550612dee945050505050565b60136020528060005260406000206000915090508060000160009054906101000a9004600160a060020a0316908060010160009054906101000a9004600160a060020a0316908060020160009054906101000a9004600160a060020a0316908060030154908060040154908060050160009054906101000a9004600160a060020a0316908060060154908060070160009054906101000a9004600160a060020a03169080600801549080600901549080600a01549080600c018054600181600116156101000203166002900480601f016020809104026020016040519081016040528092919081815260200182805460018160011615610100020316600290048015610c0b5780601f10610be057610100808354040283529160200191610c0b565b820191906000526020600020905b815481529060010190602001808311610bee57829003601f168201915b50505050509080600d015490508d565b60065481565b600160a060020a03821660009081526011602052604081206002015460ff161515610c96576040805160e560020a62461bcd02815260206004820152601560248201527f6d656d62657220646f6573206e6f742065786973740000000000000000000000604482015290519081900360640190fd5b6014548210610cef576040805160e560020a62461bcd02815260206004820152601760248201527f70726f706f73616c20646f6573206e6f74206578697374000000000000000000604482015290519081900360640190fd5b60136000601484815481101515610d0257fe5b600091825260208083209091015483528281019390935260409182018120600160a060020a0387168252600e0190925290205460ff1690505b92915050565b6000610d6a600054610d5e60075442612ec990919063ffffffff16565b9063ffffffff612ede16565b90505b90565b6011602052600090815260409020805460018201546002830154600390930154600160a060020a0390921692909160ff9091169084565b600160a060020a03821660009081526011602052604081206001015411610e025760405160e560020a62461bcd0281526004018080602001828103825260238152602001806141626023913960400191505060405180910390fd5b610e0a613cd5565b600160a0820152610e22836000808080808888612f02565b505050565b600c5481565b600e805482908110610e3b57fe5b600091825260209091200154600160a060020a0316905081565b3360009081526011602052604081206001015411610ebd576040805160e560020a62461bcd02815260206004820152600c60248201527f6e6f742061206d656d6265720000000000000000000000000000000000000000604482015290519081900360640190fd5b600160a060020a0381161515610f1d576040805160e560020a62461bcd02815260206004820152601a60248201527f6e657744656c65676174654b65792063616e6e6f742062652030000000000000604482015290519081900360640190fd5b600160a060020a0381163314610ff857600160a060020a03811660009081526011602052604090206002015460ff1615610f8b5760405160e560020a62461bcd02815260040180806020018281038252602181526020018061405c6021913960400191505060405180910390fd5b600160a060020a03808216600090815260126020908152604080832054909316825260119052206002015460ff1615610ff85760405160e560020a62461bcd028152600401808060200182810382526027815260200180613edc6027913960400191505060405180910390fd5b3360008181526011602090815260408083208054600160a060020a03908116855260128452828520805473ffffffffffffffffffffffffffffffffffffffff1990811690915590871680865294839020805482168717905581541684178155815193845290519093927fde7b64a369e10562cc2e71f0f1f944eaf144b75fead6ecb51fac9c4dd693488592908290030190a25050565b611097816131ab565b60006014828154811015156110a857fe5b60009182526020808320919091015480835260139091526040909120600b81015491925090640100000000900460ff16151561112e576040805160e560020a62461bcd02815260206004820152601c60248201527f6d75737420626520612077686974656c6973742070726f706f73616c00000000604482015290519081900360640190fd5b600b8101805461ff0019166101001790556003810154600c546111569163ffffffff612ec916565b600c5560006111648461351d565b509050801561120557600b8201805462ff0000191662010000179055600582018054600160a060020a039081166000908152600d60205260408120805460ff191660019081179091559254600e805494850181559091527fbb7b4a454dc3493923482f07822329ed19e8244eff582cc204f8554c3620c3fd90920180549290911673ffffffffffffffffffffffffffffffffffffffff199092169190911790555b6005820154600160a060020a039081166000908152600f60205260409020805460ff19169055600283015461123a9116613759565b6040805182151581529051849186917f86f74240ecee9e4230d26ff92e17fee978460d9c0f78f5c88b2864c9e7a494279181900360200190a350505050565b600b5481565b601480548290811061128d57fe5b600091825260209091200154905081565b60106020526000908152604090205460ff1681565b601260205260009081526040902054600160a060020a031681565b600160a060020a0384166000908152600d602052604090205460ff161515611340576040805160e560020a62461bcd02815260206004820152601f60248201527f74726962757465546f6b656e206973206e6f742077686974656c697374656400604482015290519081900360640190fd5b600160a060020a0382166000908152600d602052604090205460ff1615156113b2576040805160e560020a62461bcd02815260206004820152601a60248201527f7061796d656e74206973206e6f742077686974656c6973746564000000000000604482015290519081900360640190fd5b600160a060020a0387161515611412576040805160e560020a62461bcd02815260206004820152601560248201527f6170706c6963616e742063616e6e6f7420626520300000000000000000000000604482015290519081900360640190fd5b604080517f23b872dd000000000000000000000000000000000000000000000000000000008152336004820152306024820152604481018790529051600160a060020a038616916323b872dd9160648083019260209291908290030181600087803b15801561148057600080fd5b505af1158015611494573d6000803e3d6000fd5b505050506040513d60208110156114aa57600080fd5b50511515611502576040805160e560020a62461bcd02815260206004820152601d60248201527f7472696275746520746f6b656e207472616e73666572206661696c6564000000604482015290519081900360640190fd5b61150a613cd5565b61151a8888888888888888612f02565b5050505050505050565b60025481565b600d6020526000908152604090205460ff1681565b60145490565b60075481565b60015481565b33600090815260116020526040812060010154116115b9576040805160e560020a62461bcd02815260206004820152600c60248201527f6e6f742061206d656d6265720000000000000000000000000000000000000000604482015290519081900360640190fd5b61161e3382600e80548060200260200160405190810160405280929190818152602001828054801561161457602002820191906000526020600020905b8154600160a060020a031681526001909101906020018083116115f6575b5050505050613938565b50565b60045481565b600061163e60015483613c7a90919063ffffffff16565b611646610d41565b101592915050565b33600090815260126020908152604080832054600160a060020a031683526011909152812060010154116116cc576040805160e560020a62461bcd02815260206004820152600e60248201527f6e6f7420612064656c6567617465000000000000000000000000000000000000604482015290519081900360640190fd5b60085460048054604080517f23b872dd0000000000000000000000000000000000000000000000000000000081523393810193909352306024840152604483019190915251600160a060020a03909216916323b872dd916064808201926020929091908290030181600087803b15801561174557600080fd5b505af1158015611759573d6000803e3d6000fd5b505050506040513d602081101561176f57600080fd5b505115156117b15760405160e560020a62461bcd0281526004018080602001828103825260268152602001806140a96026913960400191505060405180910390fd5b60008181526013602052604090206001810154600160a060020a03161515611823576040805160e560020a62461bcd02815260206004820181905260248201527f70726f706f73616c206d7573742068617665206265656e2070726f706f736564604482015290519081900360640190fd5b600b81015460ff161561186a5760405160e560020a62461bcd0281526004018080602001828103825260238152602001806140096023913960400191505060405180910390fd5b600b8101546301000000900460ff16156118ce576040805160e560020a62461bcd02815260206004820152601b60248201527f70726f706f73616c20686173206265656e2063616e63656c6c65640000000000604482015290519081900360640190fd5b600b810154640100000000900460ff1615611984576005810154600160a060020a03166000908152600f602052604090205460ff1615611958576040805160e560020a62461bcd02815260206004820152601d60248201527f616c72656164792070726f706f73656420746f2077686974656c697374000000604482015290519081900360640190fd5b6005810154600160a060020a03166000908152600f60205260409020805460ff19166001179055611ada565b600b81015465010000000000900460ff1615611a35578054600160a060020a031660009081526010602052604090205460ff1615611a0c576040805160e560020a62461bcd02815260206004820152601860248201527f616c72656164792070726f706f73656420746f206b69636b0000000000000000604482015290519081900360640190fd5b8054600160a060020a03166000908152601060205260409020805460ff19166001179055611ada565b670de0b6b3a7640000611a698260030154611a5d600c54600b54613c7a90919063ffffffff16565b9063ffffffff613c7a16565b1115611abf576040805160e560020a62461bcd02815260206004820152601960248201527f746f6f206d616e79207368617265732072657175657374656400000000000000604482015290519081900360640190fd5b6003810154600c54611ad69163ffffffff613c7a16565b600c555b6000611b436001611a5d611aec610d41565b60145415611b3b5760148054601391600091611b0f90600163ffffffff612ec916565b81548110611b1957fe5b9060005260206000200154815260200190815260200160002060080154611b3e565b60005b613c93565b600883018190553360008181526012602052604081205460028601805473ffffffffffffffffffffffffffffffffffffffff1916600160a060020a039092169182179055600b8601805460ff19166001908117909155601480548083018255938190527fce6d7b5282bd9a3661ae061feed1dbda4e52ab073b1f9285be6e155d9c38d4ec9093018890559154939450928392917f2a383a979381335e3eb401ac01dd8083e024ff0256bf5338456ffc0063390bbd918891611c049190612ec9565b604080519283526020830191909152818101879052519081900360600190a350505050565b33600090815260126020908152604080832054600160a060020a03168352601190915281206001015411611ca7576040805160e560020a62461bcd02815260206004820152600e60248201527f6e6f7420612064656c6567617465000000000000000000000000000000000000604482015290519081900360640190fd5b33600090815260126020908152604080832054600160a060020a031680845260119092529091206014548410611d27576040805160e560020a62461bcd02815260206004820152601760248201527f70726f706f73616c20646f6573206e6f74206578697374000000000000000000604482015290519081900360640190fd5b600060136000601487815481101515611d3c57fe5b90600052602060002001548152602001908152602001600020905060038460ff16101515611db4576040805160e560020a62461bcd02815260206004820152601360248201527f6d757374206265206c657373207468616e203300000000000000000000000000604482015290519081900360640190fd5b60008460ff166002811115611dc557fe5b90508160080154611dd4610d41565b1015611e2a576040805160e560020a62461bcd02815260206004820152601d60248201527f766f74696e6720706572696f6420686173206e6f742073746172746564000000604482015290519081900360640190fd5b611e378260080154611627565b15611e765760405160e560020a62461bcd0281526004018080602001828103825260228152602001806140cf6022913960400191505060405180910390fd5b600160a060020a0384166000908152600e8301602052604081205460ff166002811115611e9f57fe5b14611ef4576040805160e560020a62461bcd02815260206004820152601860248201527f6d656d6265722068617320616c726561647920766f7465640000000000000000604482015290519081900360640190fd5b6001816002811115611f0257fe5b1480611f1957506002816002811115611f1757fe5b145b1515611f6f576040805160e560020a62461bcd02815260206004820152601d60248201527f766f7465206d7573742062652065697468657220596573206f72204e6f000000604482015290519081900360640190fd5b600160a060020a0384166000908152600e830160205260409020805482919060ff19166001836002811115611fa057fe5b02179055506001816002811115611fb357fe5b14156120075760018301546009830154611fd29163ffffffff613c7a16565b60098301556003830154861115611feb57600383018690555b81600d0154600b54111561200257600b54600d8301555b61203a565b600281600281111561201557fe5b141561203a576001830154600a8301546120349163ffffffff613c7a16565b600a8301555b6040805160ff871681529051600160a060020a03861691339189917f29bf0061f2faa9daa482f061b116195432d435536d8af4ae6b3c5dd78223679b919081900360200190a4505050505050565b60145460009082106120e4576040805160e560020a62461bcd02815260206004820152601760248201527f70726f706f73616c20646f6573206e6f74206578697374000000000000000000604482015290519081900360640190fd5b601360006014848154811015156120f757fe5b90600052602060002001548152602001908152602001600020600b01600160068110151561212157fe5b602081049091015460ff601f9092166101000a9004169050919050565b600954600160a060020a031681565b60055481565b61215b613cd5565b600082815260136020526040808220815160c081019283905292600b909101916006918390855b825461010083900a900460ff161515815260206001928301818104948501949093039092029101808411612182575094979650505050505050565b60005481565b600854600160a060020a031681565b60035481565b600a5481565b3360009081526011602052604081206001015411612246576040805160e560020a62461bcd02815260206004820152600c60248201527f6e6f742061206d656d6265720000000000000000000000000000000000000000604482015290519081900360640190fd5b60005b815181101561237557600d6000838381518110151561226457fe5b6020908102909101810151600160a060020a031682528101919091526040016000205460ff1615156122e0576040805160e560020a62461bcd02815260206004820152601960248201527f746f6b656e206d7573742062652077686974656c697374656400000000000000604482015290519081900360640190fd5b600081111561236d5781600182038151811015156122fa57fe5b90602001906020020151600160a060020a0316828281518110151561231b57fe5b60209081029091010151600160a060020a03161161236d5760405160e560020a62461bcd02815260040180806020018281038252603081526020018061402c6030913960400191505060405180910390fd5b600101612249565b50612381338383613938565b5050565b6000818152601360205260409020600b81015460ff16156123da5760405160e560020a62461bcd0281526004018080602001828103825260238152602001806140096023913960400191505060405180910390fd5b6001810154600160a060020a0316331461243e576040805160e560020a62461bcd02815260206004820152601c60248201527f6f6e6c79207468652070726f706f7365722063616e2063616e63656c00000000604482015290519081900360640190fd5b600b8101805463ff0000001916630100000017905560058101546001820154600480840154604080517fa9059cbb000000000000000000000000000000000000000000000000000000008152600160a060020a0394851693810193909352602483019190915251919092169163a9059cbb9160448083019260209291908290030181600087803b1580156124d157600080fd5b505af11580156124e5573d6000803e3d6000fd5b505050506040513d60208110156124fb57600080fd5b5051151561253d5760405160e560020a62461bcd028152600401808060200182810382526024815260200180613f986024913960400191505060405180910390fd5b60408051338152905183917fc215fed6680bb02d323dc3f8b8f85241572607538426059c9232601bd293c3be919081900360200190a25050565b600f6020526000908152604090205460ff1681565b612595816131ab565b60006014828154811015156125a657fe5b60009182526020808320919091015480835260139091526040909120600b8101549192509065010000000000900460ff16151561262d576040805160e560020a62461bcd02815260206004820152601d60248201527f6d7573742062652061206775696c64206b69636b2070726f706f73616c000000604482015290519081900360640190fd5b600b8101805461ff0019166101001790556003810154600c546126559163ffffffff612ec916565b600c5560006126638461351d565b50905080156126fb57600b8201805462ff00001916620100001790558154600160a060020a031660008181526011602090815260409182902060010154600e80548451818502810185019095528085526126fb9594929383018282801561161457602002820191906000526020600020908154600160a060020a031681526001909101906020018083116115f6575050505050613938565b8154600160a060020a039081166000908152601060205260409020805460ff19169055600283015461123a9116613759565b612736816131ab565b600060148281548110151561274757fe5b60009182526020808320919091015480835260139091526040909120600b81015491925090640100000000900460ff161580156127925750600b81015465010000000000900460ff16155b15156127e8576040805160e560020a62461bcd02815260206004820152601b60248201527f6d7573742062652061207374616e646172642070726f706f73616c0000000000604482015290519081900360640190fd5b600b8101805461ff0019166101001790556003810154600c546128109163ffffffff612ec916565b600c5560008061281f8561351d565b60078501549193509150600160a060020a0316158015906128d957506007830154600954604080517f70a08231000000000000000000000000000000000000000000000000000000008152600160a060020a039283166004820152905191909216916370a08231916024808301926020929190829003018186803b1580156128a657600080fd5b505afa1580156128ba573d6000803e3d6000fd5b505050506040513d60208110156128d057600080fd5b50516006840154115b156128e357600091505b8115612ca657600b8301805462ff00001916620100001790558254600160a060020a031660009081526011602052604090206002015460ff16156129745760038301548354600160a060020a03166000908152601160205260409020600101546129529163ffffffff613c7a16565b8354600160a060020a0316600090815260116020526040902060010155612ab0565b8254600160a060020a03908116600090815260126020908152604080832054909316825260119052206002015460ff1615612a05578254600160a060020a03908116600090815260126020908152604080832054909316808352838320805473ffffffffffffffffffffffffffffffffffffffff199081168317909155601190925292909120805490911690911790555b604080516080810182528454600160a060020a0390811680835260038088015460208086019182526001868801818152600060608901818152968152601184528981209851895490891673ffffffffffffffffffffffffffffffffffffffff19918216178a559451928901929092555160028801805491151560ff19909216919091179055935195909201949094558754909216808252601290925292909220805490911690911790555b6003830154600b54612ac79163ffffffff613c7a16565b600b556005830154600954600480860154604080517fa9059cbb000000000000000000000000000000000000000000000000000000008152600160a060020a0394851693810193909352602483019190915251919092169163a9059cbb9160448083019260209291908290030181600087803b158015612b4657600080fd5b505af1158015612b5a573d6000803e3d6000fd5b505050506040513d6020811015612b7057600080fd5b50511515612bb25760405160e560020a62461bcd028152600401808060200182810382526023815260200180613f756023913960400191505060405180910390fd5b600954600784015484546006860154604080517f01e33667000000000000000000000000000000000000000000000000000000008152600160a060020a039485166004820152928416602484015260448301919091525191909216916301e336679160648083019260209291908290030181600087803b158015612c3557600080fd5b505af1158015612c49573d6000803e3d6000fd5b505050506040513d6020811015612c5f57600080fd5b50511515612ca15760405160e560020a62461bcd0281526004018080602001828103825260218152602001806141416021913960400191505060405180910390fd5b612d97565b801515612d975760058301546001840154600480860154604080517fa9059cbb000000000000000000000000000000000000000000000000000000008152600160a060020a0394851693810193909352602483019190915251919092169163a9059cbb9160448083019260209291908290030181600087803b158015612d2b57600080fd5b505af1158015612d3f573d6000803e3d6000fd5b505050506040513d6020811015612d5557600080fd5b50511515612d975760405160e560020a62461bcd0281526004018080602001828103825260228152602001806140f16022913960400191505060405180910390fd5b6002830154612dae90600160a060020a0316613759565b6040805183151581529051859187917f86f74240ecee9e4230d26ff92e17fee978460d9c0f78f5c88b2864c9e7a494279181900360200190a35050505050565b600160a060020a0382161515612e4e576040805160e560020a62461bcd02815260206004820152601a60248201527f6d7573742070726f7669646520746f6b656e2061646472657373000000000000604482015290519081900360640190fd5b600160a060020a0382166000908152600d602052604090205460ff1615612ea95760405160e560020a62461bcd0281526004018080602001828103825260298152602001806141856029913960400191505060405180910390fd5b612eb1613cd5565b60016080820152610e22600080808681808888612f02565b600082821115612ed857600080fd5b50900390565b6000808211612eec57600080fd5b60008284811515612ef957fe5b04949350505050565b612f0a613cf4565b6101c0604051908101604052808a600160a060020a0316815260200133600160a060020a031681526020016000600160a060020a0316815260200189815260200188815260200187600160a060020a0316815260200186815260200185600160a060020a03168152602001600081526020016000815260200160008152602001838152602001848152602001600081525090508060136000600a54815260200190815260200160002060008201518160000160006101000a815481600160a060020a030219169083600160a060020a0316021790555060208201518160010160006101000a815481600160a060020a030219169083600160a060020a0316021790555060408201518160020160006101000a815481600160a060020a030219169083600160a060020a03160217905550606082015181600301556080820151816004015560a08201518160050160006101000a815481600160a060020a030219169083600160a060020a0316021790555060c0820151816006015560e08201518160070160006101000a815481600160a060020a030219169083600160a060020a031602179055506101008201518160080155610120820151816009015561014082015181600a015561016082015181600b019060066130eb929190613d97565b50610180820151805161310891600c840191602090910190613e29565b506101a09190910151600d909101553360008181526012602090815260409182902054600a5483519081529182018b9052600160a060020a038a811683850152606083018d9052608083018a905288811660a0840152925190831693928d1692849290917f1f613e805a2b7ba7cf49b3da3d6d784b943928d755fcf10a1dd8efa41f6e9b729181900360c00190a45050600a805460010190555050505050505050565b6014548110613204576040805160e560020a62461bcd02815260206004820152601760248201527f70726f706f73616c20646f6573206e6f74206578697374000000000000000000604482015290519081900360640190fd5b61320c613cf4565b6013600060148481548110151561321f57fe5b6000918252602080832091909101548352828101939093526040918201812082516101c0810184528154600160a060020a0390811682526001830154811695820195909552600282015485168185015260038201546060820152600482015460808201526005820154851660a082015260068083015460c080840191909152600784015490961660e083015260088301546101008301526009830154610120830152600a83015461014083015284519586019485905290949193610160860193600b86019291908390855b825461010083900a900460ff1615158152602060019283018181049485019490930390920291018084116132ea57505050928452505050600c8201805460408051602060026001851615610100026000190190941693909304601f81018490048402820184019092528181529382019392918301828280156133ad5780601f10613382576101008083540402835291602001916133ad565b820191906000526020600020905b81548152906001019060200180831161339057829003601f168201915b50505050508152602001600d8201548152505090506133e2600254611a5d600154846101000151613c7a90919063ffffffff16565b6133ea610d41565b101561342a5760405160e560020a62461bcd028152600401808060200182810382526025815260200180613f506025913960400191505060405180910390fd5b61016081015160200151156134735760405160e560020a62461bcd0281526004018080602001828103825260238152602001806141ae6023913960400191505060405180910390fd5b8115806134dd575060136000601461349285600163ffffffff612ec916565b8154811061349c57fe5b90600052602060002001548152602001908152602001600020600b0160016006811015156134c657fe5b602081049091015460ff601f9092166101000a9004165b15156123815760405160e560020a62461bcd028152600401808060200182810382526023815260200180613fbc6023913960400191505060405180910390fd5b600080613528613cf4565b6013600060148681548110151561353b57fe5b6000918252602080832091909101548352828101939093526040918201812082516101c0810184528154600160a060020a0390811682526001830154811695820195909552600282015485168185015260038201546060820152600482015460808201526005820154851660a082015260068083015460c080840191909152600784015490961660e083015260088301546101008301526009830154610120830152600a83015461014083015284519586019485905290949193610160860193600b86019291908390855b825461010083900a900460ff16151581526020600192830181810494850194909303909202910180841161360657505050928452505050600c8201805460408051602060026001851615610100026000190190941693909304601f81018490048402820184019092528181529382019392918301828280156136c95780601f1061369e576101008083540402835291602001916136c9565b820191906000526020600020905b8154815290600101906020018083116136ac57829003601f168201915b50505050508152602001600d82015481525050905080610140015181610120015111925060009150613717600354611a5d600254611a5d600154866101000151613c7a90919063ffffffff16565b61371f610d41565b1061372d5760019150600092505b6101a0810151600554600b546137489163ffffffff613caa16565b101561375357600092505b50915091565b600854600654604080517fa9059cbb000000000000000000000000000000000000000000000000000000008152336004820152602481019290925251600160a060020a039092169163a9059cbb916044808201926020929091908290030181600087803b1580156137c957600080fd5b505af11580156137dd573d6000803e3d6000fd5b505050506040513d60208110156137f357600080fd5b505115156138355760405160e560020a62461bcd02815260040180806020018281038252602e815260200180614113602e913960400191505060405180910390fd5b600854600654600454600160a060020a039092169163a9059cbb9184916138619163ffffffff612ec916565b6040518363ffffffff167c01000000000000000000000000000000000000000000000000000000000281526004018083600160a060020a0316600160a060020a0316815260200182815260200192505050602060405180830381600087803b1580156138cc57600080fd5b505af11580156138e0573d6000803e3d6000fd5b505050506040513d60208110156138f657600080fd5b5051151561161e5760405160e560020a62461bcd02815260040180806020018281038252602c81526020018061407d602c913960400191505060405180910390fd5b600b54600160a060020a038416600090815260116020526040902060018101548411156139af576040805160e560020a62461bcd02815260206004820152601360248201527f696e73756666696369656e742073686172657300000000000000000000000000604482015290519081900360640190fd5b6139bc8160030154612088565b15156139fc5760405160e560020a62461bcd02815260040180806020018281038252604d815260200180613f03604d913960600191505060405180910390fd5b6001810154613a11908563ffffffff612ec916565b6001820155600b54613a29908563ffffffff612ec916565b600b556009546040517f732c8f57000000000000000000000000000000000000000000000000000000008152600160a060020a03878116600483019081526024830188905260448301869052608060648401908152875160848501528751929094169363732c8f57938a938a9389938b939192909160a401906020808601910280838360005b83811015613ac7578181015183820152602001613aaf565b5050505090500195505050505050602060405180830381600087803b158015613aef57600080fd5b505af1158015613b03573d6000803e3d6000fd5b505050506040513d6020811015613b1957600080fd5b50511515613b5b5760405160e560020a62461bcd02815260040180806020018281038252602a815260200180613fdf602a913960400191505060405180910390fd5b60608351604051908082528060200260200182016040528015613b88578160200160208202803883390190505b50905060005b8151811015613bea57600e805482908110613ba557fe5b6000918252602090912001548251600160a060020a0390911690839083908110613bcb57fe5b600160a060020a03909216602092830290910190910152600101613b8e565b5033600160a060020a03167f60be1e50ea16eab9af0348b9ff0643c3d744f74a18595402cb3eb055b3aafae186836040518083815260200180602001828103825283818151815260200191508051906020019060200280838360005b83811015613c5e578181015183820152602001613c46565b50505050905001935050505060405180910390a2505050505050565b600082820183811015613c8c57600080fd5b9392505050565b600081831015613ca35781613c8c565b5090919050565b6000821515613cbb57506000610d3b565b828202828482811515613cca57fe5b0414613c8c57600080fd5b60c0604051908101604052806006906020820280388339509192915050565b610260604051908101604052806000600160a060020a031681526020016000600160a060020a031681526020016000600160a060020a0316815260200160008152602001600081526020016000600160a060020a03168152602001600081526020016000600160a060020a03168152602001600081526020016000815260200160008152602001613d83613cd5565b815260200160608152602001600081525090565b600183019183908215613e195791602002820160005b83821115613dea57835183826101000a81548160ff0219169083151502179055509260200192600101602081600001049283019260010302613dad565b8015613e175782816101000a81549060ff0219169055600101602081600001049283019260010302613dea565b505b50613e25929150613ea3565b5090565b828054600181600116156101000203166002900490600052602060002090601f016020900481019282601f10613e6a57805160ff1916838001178555613e97565b82800160010185558215613e97579182015b82811115613e97578251825591602001919060010190613e7c565b50613e25929150613ec1565b610d6d91905b80821115613e2557805460ff19168155600101613ea9565b610d6d91905b80821115613e255760008155600101613ec756fe63616e6e6f74206f7665727772697465206578697374696e672064656c6567617465206b65797363616e6e6f7420726167657175697420756e74696c206869676865737420696e6465782070726f706f73616c206d656d62657220766f74656420594553206f6e2069732070726f63657373656470726f706f73616c206973206e6f7420726561647920746f2062652070726f636573736564746f6b656e207472616e7366657220746f206775696c642062616e6b206661696c65646661696c656420746f2072657475726e207472696275746520746f2070726f706f73657270726576696f75732070726f706f73616c206d7573742062652070726f6365737365647769746864726177616c206f6620746f6b656e732066726f6d206775696c6442616e6b206661696c656470726f706f73616c2068617320616c7265616479206265656e2073706f6e736f726564746f6b656e206c697374206d75737420626520756e6971756520616e6420696e20617363656e64696e67206f7264657263616e6e6f74206f7665727772697465206578697374696e67206d656d626572736661696c656420746f2072657475726e2070726f706f73616c206465706f73697420746f2073706f6e736f7270726f706f73616c206465706f73697420746f6b656e207472616e73666572206661696c656470726f706f73616c20766f74696e6720706572696f642068617320657870697265646661696c696e6720766f746520746f6b656e207472616e73666572206661696c65646661696c656420746f2073656e642070726f63657373696e672072657761726420746f206d73672e73656e646572746f6b656e207061796d656e7420746f206170706c6963616e74206661696c65646d656d626572206d7573742068617665206174206c65617374206f6e6520736861726563616e6e6f7420616c726561647920686176652077686974656c69737465642074686520746f6b656e70726f706f73616c2068617320616c7265616479206265656e2070726f636573736564a165627a7a72305820644a01646e820821a3582fedfc3793aada9c1b57d652db67be08522e029029260029608060405234801561001057600080fd5b5060008054600160a060020a0319163317905561063b806100326000396000f3fe608060405234801561001057600080fd5b506004361061005d577c0100000000000000000000000000000000000000000000000000000000600035046301e336678114610062578063732c8f57146100b95780638da5cb5b14610185575b600080fd5b6100a56004803603606081101561007857600080fd5b5073ffffffffffffffffffffffffffffffffffffffff8135811691602081013590911690604001356101b6565b604080519115158252519081900360200190f35b6100a5600480360360808110156100cf57600080fd5b73ffffffffffffffffffffffffffffffffffffffff823516916020810135916040820135919081019060808101606082013564010000000081111561011357600080fd5b82018360208201111561012557600080fd5b8035906020019184602083028401116401000000008311171561014757600080fd5b919080806020026020016040519081016040528093929190818152602001838360200280828437600092019190915250929550610317945050505050565b61018d61059b565b6040805173ffffffffffffffffffffffffffffffffffffffff9092168252519081900360200190f35b6000805473ffffffffffffffffffffffffffffffffffffffff1633146101db57600080fd5b8373ffffffffffffffffffffffffffffffffffffffff168373ffffffffffffffffffffffffffffffffffffffff167f2717ead6b9200dd235aad468c9809ea400fe33ac69b5bfaa6d3e90fc922b6398846040518082815260200191505060405180910390a38373ffffffffffffffffffffffffffffffffffffffff1663a9059cbb84846040518363ffffffff167c0100000000000000000000000000000000000000000000000000000000028152600401808373ffffffffffffffffffffffffffffffffffffffff1673ffffffffffffffffffffffffffffffffffffffff16815260200182815260200192505050602060405180830381600087803b1580156102e357600080fd5b505af11580156102f7573d6000803e3d6000fd5b505050506040513d602081101561030d57600080fd5b5051949350505050565b6000805473ffffffffffffffffffffffffffffffffffffffff16331461033c57600080fd5b60005b825181101561058f5760006104178561040b88878681518110151561036057fe5b6020908102909101810151604080517f70a08231000000000000000000000000000000000000000000000000000000008152306004820152905173ffffffffffffffffffffffffffffffffffffffff909216926370a0823192602480840193829003018186803b1580156103d357600080fd5b505afa1580156103e7573d6000803e3d6000fd5b505050506040513d60208110156103fd57600080fd5b50519063ffffffff6105b716565b9063ffffffff6105eb16565b9050838281518110151561042757fe5b9060200190602002015173ffffffffffffffffffffffffffffffffffffffff168773ffffffffffffffffffffffffffffffffffffffff167f2717ead6b9200dd235aad468c9809ea400fe33ac69b5bfaa6d3e90fc922b6398836040518082815260200191505060405180910390a383828151811015156104a357fe5b9060200190602002015173ffffffffffffffffffffffffffffffffffffffff1663a9059cbb88836040518363ffffffff167c0100000000000000000000000000000000000000000000000000000000028152600401808373ffffffffffffffffffffffffffffffffffffffff1673ffffffffffffffffffffffffffffffffffffffff16815260200182815260200192505050602060405180830381600087803b15801561054f57600080fd5b505af1158015610563573d6000803e3d6000fd5b505050506040513d602081101561057957600080fd5b5051151561058657600080fd5b5060010161033f565b50600195945050505050565b60005473ffffffffffffffffffffffffffffffffffffffff1681565b60008215156105c8575060006105e5565b8282028284828115156105d757fe5b04146105e257600080fd5b90505b92915050565b60008082116105f957600080fd5b6000828481151561060657fe5b0494935050505056fea165627a7a72305820e5b3b0e768d7df7f95c560e5c8fcdcd02da07430bf308d17ffe9bbf2aef1b26800295f766f74696e67506572696f644c656e6774682065786365656473206c696d69745f70726f706f73616c4465706f7369742063616e6e6f7420626520736d616c6c6572207468616e205f70726f63657373696e67526577617264",
  "source": "pragma solidity 0.5.3;\n\nimport \"./oz/SafeMath.sol\";\nimport \"./oz/IERC20.sol\";\nimport \"./GuildBank.sol\";\n\ncontract Moloch {\n    using SafeMath for uint256;\n\n    /***************\n    GLOBAL CONSTANTS\n    ***************/\n    uint256 public periodDuration; // default = 17280 = 4.8 hours in seconds (5 periods per day)\n    uint256 public votingPeriodLength; // default = 35 periods (7 days)\n    uint256 public gracePeriodLength; // default = 35 periods (7 days)\n    uint256 public emergencyExitWait; // default = 35 periods (7 days)\n    uint256 public proposalDeposit; // default = 10 ETH (~$1,000 worth of ETH at contract deployment)\n    uint256 public dilutionBound; // default = 3 - maximum multiplier a YES voter will be obligated to pay in case of mass ragequit\n    uint256 public processingReward; // default = 0.1 - amount of ETH to give to whoever processes a proposal\n    uint256 public summoningTime; // needed to determine the current period\n\n    IERC20 public depositToken; // deposit token contract reference; default = wETH\n    GuildBank public guildBank; // guild bank contract reference\n\n    // HARD-CODED LIMITS\n    // These numbers are quite arbitrary; they are small enough to avoid overflows when doing calculations\n    // with periods or shares, yet big enough to not limit reasonable use cases.\n    uint256 constant MAX_VOTING_PERIOD_LENGTH = 10 ** 18;\n    uint256 constant MAX_GRACE_PERIOD_LENGTH = 10 ** 18;\n    uint256 constant MAX_DILUTION_BOUND = 10 ** 18;\n    uint256 constant MAX_NUMBER_OF_SHARES = 10 ** 18;\n\n    /***************\n    EVENTS\n    ***************/\n    event SubmitProposal(uint256 proposalIndex, address indexed delegateKey, address indexed memberAddress, address indexed applicant,uint256 tributeOffered, address tributeToken, uint256 sharesRequested, uint256 paymentRequested, address paymentToken);\n    event SponsorProposal(address indexed delegateKey, address indexed memberAddress, uint256 proposalIndex, uint256 proposalQueueIndex, uint256 startingPeriod);\n    event SubmitVote(uint256 indexed proposalQueueIndex, address indexed delegateKey, address indexed memberAddress, uint8 uintVote);\n    event ProcessProposal(uint256 indexed proposalQueueIndex, uint256 indexed proposalId, bool didPass);\n    event Ragequit(address indexed memberAddress, uint256 sharesToBurn, address[] tokenList);\n    event CancelProposal(uint256 indexed proposalIndex, address applicantAddress);\n    event UpdateDelegateKey(address indexed memberAddress, address newDelegateKey);\n    event SummonComplete(address indexed summoner, uint256 shares);\n\n    /******************\n    INTERNAL ACCOUNTING\n    ******************/\n    uint256 public proposalCount = 0; // the total # of proposals submitted (includes those not yet sponsored)\n    uint256 public totalShares = 0; // total shares across all members\n    uint256 public totalSharesRequested = 0; // total shares that have been requested in unprocessed proposals\n\n    enum Vote {\n        Null, // default value, counted as abstention\n        Yes,\n        No\n    }\n\n    struct Member {\n        address delegateKey; // the key responsible for submitting proposals and voting - defaults to member address unless updated\n        uint256 shares; // the # of shares assigned to this member\n        bool exists; // always true once a member has been created\n        uint256 highestIndexYesVote; // highest proposal index # on which the member voted YES\n    }\n\n    struct Proposal {\n        address applicant; // the applicant who wishes to become a member - this key will be used for withdrawals (doubles as guild kick target for gkick proposals)\n        address proposer; // the account that submitted the proposal (can be non-member)\n        address sponsor; // the member that sponsored the proposal (moving it into the queue)\n        uint256 sharesRequested; // the # of shares the applicant is requesting\n        uint256 tributeOffered; // amount of tokens offered as tribute\n        IERC20 tributeToken; // tribute token contract reference\n        uint256 paymentRequested; // amount of tokens requested as payment\n        IERC20 paymentToken; // payment token contract reference\n        uint256 startingPeriod; // the period in which voting can start for this proposal\n        uint256 yesVotes; // the total number of YES votes for this proposal\n        uint256 noVotes; // the total number of NO votes for this proposal\n        bool[6] flags; // [sponsored, processed, didPass, cancelled, whitelist, guildkick]\n        string details; // proposal details - could be IPFS hash, plaintext, or JSON\n        uint256 maxTotalSharesAtYesVote; // the maximum # of total shares encountered at a yes vote on this proposal\n        mapping(address => Vote) votesByMember; // the votes on this proposal by each member\n    }\n\n    mapping(address => bool) public tokenWhitelist;\n    IERC20[] public approvedTokens;\n\n    mapping(address => bool) public proposedToWhitelist;\n    mapping(address => bool) public proposedToKick;\n\n    mapping(address => Member) public members;\n    mapping(address => address) public memberAddressByDelegateKey;\n\n    mapping(uint256 => Proposal) public proposals;\n\n    uint256[] public proposalQueue;\n\n    modifier onlyMember {\n        require(members[msg.sender].shares > 0, \"not a member\");\n        _;\n    }\n\n    modifier onlyDelegate {\n        require(members[memberAddressByDelegateKey[msg.sender]].shares > 0, \"not a delegate\");\n        _;\n    }\n\n    constructor(\n        address summoner,\n        address[] memory _approvedTokens,\n        uint256 _periodDuration,\n        uint256 _votingPeriodLength,\n        uint256 _gracePeriodLength,\n        uint256 _emergencyExitWait,\n        uint256 _proposalDeposit,\n        uint256 _dilutionBound,\n        uint256 _processingReward\n    ) public {\n        require(summoner != address(0), \"summoner cannot be 0\");\n        require(_periodDuration > 0, \"_periodDuration cannot be 0\");\n        require(_votingPeriodLength > 0, \"_votingPeriodLength cannot be 0\");\n        require(_votingPeriodLength <= MAX_VOTING_PERIOD_LENGTH, \"_votingPeriodLength exceeds limit\");\n        require(_gracePeriodLength <= MAX_GRACE_PERIOD_LENGTH, \"_gracePeriodLength exceeds limit\");\n        require(_emergencyExitWait > 0, \"_emergencyExitWait cannot be 0\");\n        require(_dilutionBound > 0, \"_dilutionBound cannot be 0\");\n        require(_dilutionBound <= MAX_DILUTION_BOUND, \"_dilutionBound exceeds limit\");\n        require(_approvedTokens.length > 0, \"need at least one approved token\");\n        require(_proposalDeposit >= _processingReward, \"_proposalDeposit cannot be smaller than _processingReward\");\n\n        depositToken = IERC20(_approvedTokens[0]);\n\n        for (uint256 i = 0; i < _approvedTokens.length; i++) {\n            require(_approvedTokens[i] != address(0), \"_approvedToken cannot be 0\");\n            require(!tokenWhitelist[_approvedTokens[i]], \"duplicate approved token\");\n            tokenWhitelist[_approvedTokens[i]] = true;\n            approvedTokens.push(IERC20(_approvedTokens[i]));\n        }\n\n        guildBank = new GuildBank();\n\n        periodDuration = _periodDuration;\n        votingPeriodLength = _votingPeriodLength;\n        gracePeriodLength = _gracePeriodLength;\n        emergencyExitWait = _emergencyExitWait;\n        proposalDeposit = _proposalDeposit;\n        dilutionBound = _dilutionBound;\n        processingReward = _processingReward;\n\n        summoningTime = now;\n\n        members[summoner] = Member(summoner, 1, true, 0);\n        memberAddressByDelegateKey[summoner] = summoner;\n        totalShares = 1;\n\n        emit SummonComplete(summoner, 1);\n    }\n\n    /*****************\n    PROPOSAL FUNCTIONS\n    *****************/\n    function submitProposal(\n        address applicant,\n        uint256 sharesRequested,\n        uint256 tributeOffered,\n        address tributeToken,\n        uint256 paymentRequested,\n        address paymentToken,\n        string memory details\n    )\n    public\n    {\n        require(tokenWhitelist[tributeToken], \"tributeToken is not whitelisted\");\n        require(tokenWhitelist[paymentToken], \"payment is not whitelisted\");\n        require(applicant != address(0), \"applicant cannot be 0\");\n\n        // collect tribute from applicant and store it in the Moloch until the proposal is processed\n        require(IERC20(tributeToken).transferFrom(msg.sender, address(this), tributeOffered), \"tribute token transfer failed\");\n\n        bool[6] memory flags;\n\n        _submitProposal(applicant, sharesRequested, tributeOffered, tributeToken, paymentRequested, paymentToken, details, flags);\n    }\n\n    function submitWhitelistProposal(address tokenToWhitelist, string memory details) public {\n        require(tokenToWhitelist != address(0), \"must provide token address\");\n        require(!tokenWhitelist[tokenToWhitelist], \"cannot already have whitelisted the token\");\n\n        bool[6] memory flags;\n        flags[4] = true;\n\n        _submitProposal(address(0), 0, 0, tokenToWhitelist, 0, address(0), details, flags);\n    }\n\n    function submitGuildKickProposal(address memberToKick, string memory details) public {\n        require(members[memberToKick].shares > 0, \"member must have at least one share\");\n\n        bool[6] memory flags;\n        flags[5] = true;\n\n        _submitProposal(memberToKick, 0, 0, address(0), 0, address(0), details, flags);\n    }\n\n    function _submitProposal(\n        address applicant,\n        uint256 sharesRequested,\n        uint256 tributeOffered,\n        address tributeToken,\n        uint256 paymentRequested,\n        address paymentToken,\n        string memory details,\n        bool[6] memory flags\n    ) internal {\n        Proposal memory proposal = Proposal({\n            applicant : applicant,\n            proposer : msg.sender,\n            sponsor : address(0),\n            sharesRequested : sharesRequested,\n            tributeOffered : tributeOffered,\n            tributeToken : IERC20(tributeToken),\n            paymentRequested : paymentRequested,\n            paymentToken : IERC20(paymentToken),\n            startingPeriod : 0,\n            yesVotes : 0,\n            noVotes : 0,\n            flags : flags,\n            details : details,\n            maxTotalSharesAtYesVote : 0\n        });\n\n        proposals[proposalCount] = proposal;\n        address memberAddress = memberAddressByDelegateKey[msg.sender];\n        emit SubmitProposal(proposalCount, msg.sender, memberAddress, applicant, tributeOffered, tributeToken, sharesRequested, paymentRequested, paymentToken);\n        proposalCount += 1;\n    }\n\n    function sponsorProposal(uint256 proposalId) public onlyDelegate {\n        // collect proposal deposit from sponsor and store it in the Moloch until the proposal is processed\n        require(depositToken.transferFrom(msg.sender, address(this), proposalDeposit), \"proposal deposit token transfer failed\");\n\n        Proposal storage proposal = proposals[proposalId];\n\n        require(proposal.proposer != address(0), 'proposal must have been proposed');\n\n        require(!proposal.flags[0], \"proposal has already been sponsored\");\n        require(!proposal.flags[3], \"proposal has been cancelled\");\n\n        if (proposal.flags[4]) {\n            require(!proposedToWhitelist[address(proposal.tributeToken)], 'already proposed to whitelist');\n            proposedToWhitelist[address(proposal.tributeToken)] = true;\n        } else if (proposal.flags[5]) {\n            require(!proposedToKick[proposal.applicant], 'already proposed to kick');\n            proposedToKick[proposal.applicant] = true;\n        } else {\n            // Make sure we won't run into overflows when doing calculations with shares.\n            // Note that totalShares + totalSharesRequested + sharesRequested is an upper bound\n            // on the number of shares that can exist until this proposal has been processed.\n            require(totalShares.add(totalSharesRequested).add(proposal.sharesRequested) <= MAX_NUMBER_OF_SHARES, \"too many shares requested\");\n            totalSharesRequested = totalSharesRequested.add(proposal.sharesRequested);\n        }\n\n        // compute startingPeriod for proposal\n        uint256 startingPeriod = max(\n            getCurrentPeriod(),\n            proposalQueue.length == 0 ? 0 : proposals[proposalQueue[proposalQueue.length.sub(1)]].startingPeriod\n        ).add(1);\n\n        proposal.startingPeriod = startingPeriod;\n\n        address memberAddress = memberAddressByDelegateKey[msg.sender];\n        proposal.sponsor = memberAddress;\n\n        proposal.flags[0] = true;\n\n        // append proposal to the queue\n        proposalQueue.push(proposalId);\n        emit SponsorProposal(msg.sender, memberAddress, proposalId, proposalQueue.length.sub(1), startingPeriod);\n    }\n\n    function submitVote(uint256 proposalIndex, uint8 uintVote) public onlyDelegate {\n        address memberAddress = memberAddressByDelegateKey[msg.sender];\n        Member storage member = members[memberAddress];\n\n        require(proposalIndex < proposalQueue.length, \"proposal does not exist\");\n        Proposal storage proposal = proposals[proposalQueue[proposalIndex]];\n\n        require(uintVote < 3, \"must be less than 3\");\n        Vote vote = Vote(uintVote);\n\n        require(getCurrentPeriod() >= proposal.startingPeriod, \"voting period has not started\");\n        require(!hasVotingPeriodExpired(proposal.startingPeriod), \"proposal voting period has expired\");\n        require(proposal.votesByMember[memberAddress] == Vote.Null, \"member has already voted\");\n        require(vote == Vote.Yes || vote == Vote.No, \"vote must be either Yes or No\");\n\n        proposal.votesByMember[memberAddress] = vote;\n\n        if (vote == Vote.Yes) {\n            proposal.yesVotes = proposal.yesVotes.add(member.shares);\n\n            // set highest index (latest) yes vote - must be processed for member to ragequit\n            if (proposalIndex > member.highestIndexYesVote) {\n                member.highestIndexYesVote = proposalIndex;\n            }\n\n            // set maximum of total shares encountered at a yes vote - used to bound dilution for yes voters\n            if (totalShares > proposal.maxTotalSharesAtYesVote) {\n                proposal.maxTotalSharesAtYesVote = totalShares;\n            }\n\n        } else if (vote == Vote.No) {\n            proposal.noVotes = proposal.noVotes.add(member.shares);\n        }\n\n        emit SubmitVote(proposalIndex, msg.sender, memberAddress, uintVote);\n    }\n\n    function processProposal(uint256 proposalIndex) public {\n        _validateProposalForProcessing(proposalIndex);\n\n        uint256 proposalId = proposalQueue[proposalIndex];\n        Proposal storage proposal = proposals[proposalId];\n\n        require(!proposal.flags[4] && !proposal.flags[5], \"must be a standard proposal\");\n\n        proposal.flags[1] = true;\n        totalSharesRequested = totalSharesRequested.sub(proposal.sharesRequested);\n\n        (bool didPass, bool emergencyProcessing) = _didPass(proposalIndex);\n\n        if (proposal.paymentToken != IERC20(0) && proposal.paymentRequested > proposal.paymentToken.balanceOf(address(guildBank))) {\n            didPass = false;\n        }\n\n        // PROPOSAL PASSED\n        if (didPass) {\n            proposal.flags[2] = true;\n\n            // if the applicant is already a member, add to their existing shares\n            if (members[proposal.applicant].exists) {\n                members[proposal.applicant].shares = members[proposal.applicant].shares.add(proposal.sharesRequested);\n\n            // the applicant is a new member, create a new record for them\n            } else {\n                // if the applicant address is already taken by a member's delegateKey, reset it to their member address\n                if (members[memberAddressByDelegateKey[proposal.applicant]].exists) {\n                    address memberToOverride = memberAddressByDelegateKey[proposal.applicant];\n                    memberAddressByDelegateKey[memberToOverride] = memberToOverride;\n                    members[memberToOverride].delegateKey = memberToOverride;\n                }\n\n                // use applicant address as delegateKey by default\n                members[proposal.applicant] = Member(proposal.applicant, proposal.sharesRequested, true, 0);\n                memberAddressByDelegateKey[proposal.applicant] = proposal.applicant;\n            }\n\n            // mint new shares\n            totalShares = totalShares.add(proposal.sharesRequested);\n\n            require(\n                proposal.tributeToken.transfer(address(guildBank), proposal.tributeOffered),\n                \"token transfer to guild bank failed\"\n            );\n\n            require(\n                guildBank.withdrawToken(proposal.paymentToken, proposal.applicant, proposal.paymentRequested),\n                \"token payment to applicant failed\"\n            );\n\n\n        // PROPOSAL FAILED\n        } else {\n            // return all tokens to the applicant (skip if emergency processing)\n            if (!emergencyProcessing) {\n                require(\n                    proposal.tributeToken.transfer(proposal.proposer, proposal.tributeOffered),\n                    \"failing vote token transfer failed\"\n                );\n            }\n        }\n\n        _returnDeposit(proposal.sponsor);\n\n        emit ProcessProposal(proposalIndex, proposalId, didPass);\n    }\n\n    function processWhitelistProposal(uint256 proposalIndex) public {\n        _validateProposalForProcessing(proposalIndex);\n\n        uint256 proposalId = proposalQueue[proposalIndex];\n        Proposal storage proposal = proposals[proposalId];\n\n        require(proposal.flags[4], \"must be a whitelist proposal\");\n\n        proposal.flags[1] = true;\n        totalSharesRequested = totalSharesRequested.sub(proposal.sharesRequested);\n\n        (bool didPass,) = _didPass(proposalIndex);\n\n        if (didPass) {\n            proposal.flags[2] = true;\n\n            tokenWhitelist[address(proposal.tributeToken)] = true;\n            approvedTokens.push(proposal.tributeToken);\n        }\n\n        proposedToWhitelist[address(proposal.tributeToken)] = false;\n\n        _returnDeposit(proposal.sponsor);\n\n        emit ProcessProposal(proposalIndex, proposalId, didPass);\n    }\n\n    function processGuildKickProposal(uint256 proposalIndex) public {\n        _validateProposalForProcessing(proposalIndex);\n\n        uint256 proposalId = proposalQueue[proposalIndex];\n        Proposal storage proposal = proposals[proposalId];\n\n        require(proposal.flags[5], \"must be a guild kick proposal\");\n\n        proposal.flags[1] = true;\n        totalSharesRequested = totalSharesRequested.sub(proposal.sharesRequested);\n\n        (bool didPass,) = _didPass(proposalIndex);\n\n        if (didPass) {\n            proposal.flags[2] = true;\n\n            _ragequit(proposal.applicant, members[proposal.applicant].shares, approvedTokens);\n        }\n\n        proposedToKick[proposal.applicant] = false;\n\n        _returnDeposit(proposal.sponsor);\n\n        emit ProcessProposal(proposalIndex, proposalId, didPass);\n    }\n\n    function _didPass(uint256 proposalIndex) internal view returns (bool didPass, bool emergencyProcessing) {\n        Proposal memory proposal = proposals[proposalQueue[proposalIndex]];\n\n        didPass = proposal.yesVotes > proposal.noVotes;\n\n        // Make the proposal fail (and skip returning tribute) if emergencyExitWait is exceeded\n        emergencyProcessing = false;\n        if (getCurrentPeriod() >= proposal.startingPeriod.add(votingPeriodLength).add(gracePeriodLength).add(emergencyExitWait)) {\n            emergencyProcessing = true;\n            didPass = false;\n        }\n\n        // Make the proposal fail if the dilutionBound is exceeded\n        if (totalShares.mul(dilutionBound) < proposal.maxTotalSharesAtYesVote) {\n            didPass = false;\n        }\n\n        return (didPass, emergencyProcessing);\n    }\n\n    function _validateProposalForProcessing(uint256 proposalIndex) internal view {\n        require(proposalIndex < proposalQueue.length, \"proposal does not exist\");\n        Proposal memory proposal = proposals[proposalQueue[proposalIndex]];\n\n        require(getCurrentPeriod() >= proposal.startingPeriod.add(votingPeriodLength).add(gracePeriodLength), \"proposal is not ready to be processed\");\n        require(proposal.flags[1] == false, \"proposal has already been processed\");\n        require(proposalIndex == 0 || proposals[proposalQueue[proposalIndex.sub(1)]].flags[1], \"previous proposal must be processed\");\n    }\n\n    function _returnDeposit(address sponsor) internal {\n        require(\n            depositToken.transfer(msg.sender, processingReward),\n            \"failed to send processing reward to msg.sender\"\n        );\n\n        require(\n            depositToken.transfer(sponsor, proposalDeposit.sub(processingReward)),\n            \"failed to return proposal deposit to sponsor\"\n        );\n    }\n\n    function ragequit(uint256 sharesToBurn) public onlyMember {\n        _ragequit(msg.sender, sharesToBurn, approvedTokens);\n    }\n\n    // provide a list of tokens to withdraw (in case guild bank has broken tokens)\n    function safeRagequit(uint256 sharesToBurn, IERC20[] memory tokenList) public onlyMember {\n        for (uint256 i = 0; i < tokenList.length; i++) {\n            require(tokenWhitelist[address(tokenList[i])], \"token must be whitelisted\");\n\n            if (i > 0) {\n                require(tokenList[i] > tokenList[i - 1], \"token list must be unique and in ascending order\");\n            }\n        }\n\n        _ragequit(msg.sender, sharesToBurn, tokenList);\n    }\n\n    function _ragequit(address memberAddress, uint256 sharesToBurn, IERC20[] memory tokenList) internal {\n        uint256 initialTotalShares = totalShares;\n\n        Member storage member = members[memberAddress];\n\n        require(member.shares >= sharesToBurn, \"insufficient shares\");\n\n        require(canRagequit(member.highestIndexYesVote), \"cannot ragequit until highest index proposal member voted YES on is processed\");\n\n        // burn shares\n        member.shares = member.shares.sub(sharesToBurn);\n        totalShares = totalShares.sub(sharesToBurn);\n\n        // instruct guildBank to transfer fair share of tokens to the ragequitter\n        require(\n            guildBank.withdraw(memberAddress, sharesToBurn, initialTotalShares, tokenList),\n            \"withdrawal of tokens from guildBank failed\"\n        );\n\n        address[] memory eventTokenList = new address[](tokenList.length);\n        for (uint256 i=0; i < eventTokenList.length; i++) {\n            eventTokenList[i] = address(approvedTokens[i]);\n        }\n        emit Ragequit(msg.sender, sharesToBurn, eventTokenList);\n    }\n\n    function cancelProposal(uint256 proposalId) public {\n        Proposal storage proposal = proposals[proposalId];\n        require(!proposal.flags[0], \"proposal has already been sponsored\");\n        require(msg.sender == proposal.proposer, \"only the proposer can cancel\");\n\n        proposal.flags[3] = true;\n\n        require(\n            proposal.tributeToken.transfer(proposal.proposer, proposal.tributeOffered),\n            \"failed to return tribute to proposer\"\n        );\n\n        emit CancelProposal(proposalId, msg.sender);\n    }\n\n    function updateDelegateKey(address newDelegateKey) public onlyMember {\n        require(newDelegateKey != address(0), \"newDelegateKey cannot be 0\");\n\n        // skip checks if member is setting the delegate key to their member address\n        if (newDelegateKey != msg.sender) {\n            require(!members[newDelegateKey].exists, \"cannot overwrite existing members\");\n            require(!members[memberAddressByDelegateKey[newDelegateKey]].exists, \"cannot overwrite existing delegate keys\");\n        }\n\n        Member storage member = members[msg.sender];\n        memberAddressByDelegateKey[member.delegateKey] = address(0);\n        memberAddressByDelegateKey[newDelegateKey] = msg.sender;\n        member.delegateKey = newDelegateKey;\n\n        emit UpdateDelegateKey(msg.sender, newDelegateKey);\n    }\n\n    /***************\n    GETTER FUNCTIONS\n    ***************/\n    function max(uint256 x, uint256 y) internal pure returns (uint256) {\n        return x >= y ? x : y;\n    }\n\n    function getCurrentPeriod() public view returns (uint256) {\n        return now.sub(summoningTime).div(periodDuration);\n    }\n\n    function getProposalQueueLength() public view returns (uint256) {\n        return proposalQueue.length;\n    }\n\n    function getProposalFlags(uint256 proposalIndex) public view returns (bool[6] memory) {\n        return proposals[proposalIndex].flags;\n    }\n\n    // can only ragequit if the latest proposal you voted YES on has been processed\n    function canRagequit(uint256 highestIndexYesVote) public view returns (bool) {\n        require(highestIndexYesVote < proposalQueue.length, \"proposal does not exist\");\n        return proposals[proposalQueue[highestIndexYesVote]].flags[1];\n    }\n\n    function hasVotingPeriodExpired(uint256 startingPeriod) public view returns (bool) {\n        return getCurrentPeriod() >= startingPeriod.add(votingPeriodLength);\n    }\n\n    function getMemberProposalVote(address memberAddress, uint256 proposalIndex) public view returns (Vote) {\n        require(members[memberAddress].exists, \"member does not exist\");\n        require(proposalIndex < proposalQueue.length, \"proposal does not exist\");\n        return proposals[proposalQueue[proposalIndex]].votesByMember[memberAddress];\n    }\n}\n",
  "sourcePath": "/Users/andy/workspace/moloch/contracts/Moloch.sol",
  "compiler": {
    "name": "solc",
    "version": "0.5.3+commit.10d17f24.Emscripten.clang"
  },
  "schemaVersion": "3.0.16",
  "updatedAt": "2019-12-17T13:40:49.964Z",
  "devdoc": {
    "methods": {}
  },
  "userdoc": {
    "methods": {
      "submitProposal(address,uint256,uint256,address,uint256,address,string)": {
        "notice": "*************** PROPOSAL FUNCTIONS****************"
      }
    }
  }
}